{
  "contractName": "Election",
  "abi": [
    {
      "inputs": [],
      "stateMutability": "nonpayable",
      "type": "constructor"
    },
    {
      "inputs": [],
      "name": "admin",
      "outputs": [
        {
          "internalType": "address",
          "name": "",
          "type": "address"
        }
      ],
      "stateMutability": "view",
      "type": "function",
      "constant": true
    },
    {
      "inputs": [],
      "name": "constituencyCount",
      "outputs": [
        {
          "internalType": "uint256",
          "name": "",
          "type": "uint256"
        }
      ],
      "stateMutability": "view",
      "type": "function",
      "constant": true
    },
    {
      "inputs": [],
      "name": "constituencyExist",
      "outputs": [
        {
          "internalType": "bool",
          "name": "",
          "type": "bool"
        }
      ],
      "stateMutability": "view",
      "type": "function",
      "constant": true
    },
    {
      "inputs": [
        {
          "internalType": "uint256",
          "name": "",
          "type": "uint256"
        }
      ],
      "name": "poll",
      "outputs": [
        {
          "internalType": "uint256",
          "name": "pollID",
          "type": "uint256"
        },
        {
          "internalType": "string",
          "name": "state",
          "type": "string"
        }
      ],
      "stateMutability": "view",
      "type": "function",
      "constant": true
    },
    {
      "inputs": [],
      "name": "voterCount",
      "outputs": [
        {
          "internalType": "uint256",
          "name": "",
          "type": "uint256"
        }
      ],
      "stateMutability": "view",
      "type": "function",
      "constant": true
    },
    {
      "inputs": [
        {
          "internalType": "address",
          "name": "",
          "type": "address"
        }
      ],
      "name": "voterIDs",
      "outputs": [
        {
          "internalType": "uint256",
          "name": "voterIndex",
          "type": "uint256"
        }
      ],
      "stateMutability": "view",
      "type": "function",
      "constant": true
    },
    {
      "inputs": [
        {
          "internalType": "uint256",
          "name": "",
          "type": "uint256"
        }
      ],
      "name": "voters",
      "outputs": [
        {
          "internalType": "string",
          "name": "voterName",
          "type": "string"
        },
        {
          "internalType": "uint256",
          "name": "voterID",
          "type": "uint256"
        },
        {
          "internalType": "uint256",
          "name": "phoneNumber",
          "type": "uint256"
        },
        {
          "internalType": "bool",
          "name": "voted",
          "type": "bool"
        },
        {
          "internalType": "uint256",
          "name": "vote",
          "type": "uint256"
        }
      ],
      "stateMutability": "view",
      "type": "function",
      "constant": true
    },
    {
      "inputs": [
        {
          "internalType": "uint256",
          "name": "",
          "type": "uint256"
        }
      ],
      "name": "winnerConstituencyCount",
      "outputs": [
        {
          "internalType": "uint256",
          "name": "",
          "type": "uint256"
        }
      ],
      "stateMutability": "view",
      "type": "function",
      "constant": true
    },
    {
      "inputs": [
        {
          "internalType": "uint256",
          "name": "_pollID",
          "type": "uint256"
        },
        {
          "internalType": "string",
          "name": "_state",
          "type": "string"
        },
        {
          "internalType": "uint256",
          "name": "_candidateID",
          "type": "uint256"
        },
        {
          "internalType": "string",
          "name": "_candidateName",
          "type": "string"
        },
        {
          "internalType": "uint256",
          "name": "_constituencyID",
          "type": "uint256"
        },
        {
          "internalType": "string",
          "name": "_constituencyName",
          "type": "string"
        },
        {
          "internalType": "string",
          "name": "_partyName",
          "type": "string"
        }
      ],
      "name": "addPoll",
      "outputs": [],
      "stateMutability": "nonpayable",
      "type": "function"
    },
    {
      "inputs": [
        {
          "internalType": "string",
          "name": "_voterName",
          "type": "string"
        },
        {
          "internalType": "uint256",
          "name": "_voterID",
          "type": "uint256"
        },
        {
          "internalType": "uint256",
          "name": "_phoneNumber",
          "type": "uint256"
        }
      ],
      "name": "voterLogin",
      "outputs": [],
      "stateMutability": "nonpayable",
      "type": "function"
    },
    {
      "inputs": [
        {
          "internalType": "uint256",
          "name": "_pollID",
          "type": "uint256"
        },
        {
          "internalType": "uint256",
          "name": "_candidateID",
          "type": "uint256"
        }
      ],
      "name": "vote",
      "outputs": [],
      "stateMutability": "nonpayable",
      "type": "function"
    },
    {
      "inputs": [
        {
          "internalType": "uint256",
          "name": "_pollID",
          "type": "uint256"
        },
        {
          "internalType": "uint256",
          "name": "_candidateID",
          "type": "uint256"
        },
        {
          "internalType": "uint256",
          "name": "_constituencyID",
          "type": "uint256"
        }
      ],
      "name": "constituencyWinner",
      "outputs": [
        {
          "internalType": "uint256",
          "name": "_winnerID",
          "type": "uint256"
        }
      ],
      "stateMutability": "nonpayable",
      "type": "function"
    },
    {
      "inputs": [
        {
          "internalType": "uint256",
          "name": "_pollID",
          "type": "uint256"
        }
      ],
      "name": "electionWinner",
      "outputs": [
        {
          "internalType": "string",
          "name": "_winningParty",
          "type": "string"
        }
      ],
      "stateMutability": "view",
      "type": "function",
      "constant": true
    }
  ],
  "bytecode": "0x608060405260006001556000600260006101000a81548160ff021916908315150217905550600060035534801561003557600080fd5b50336000806101000a81548173ffffffffffffffffffffffffffffffffffffffff021916908373ffffffffffffffffffffffffffffffffffffffff160217905550611658806100856000396000f3fe608060405234801561001057600080fd5b50600436106100cf5760003560e01c806380ebd2ef1161008c578063b384abef11610066578063b384abef14610227578063d41fa75d14610243578063da58c7d914610273578063f851a440146102a7576100cf565b806380ebd2ef146101975780638726dcf3146101c757806396af3896146101f7576100cf565b80632f8f248c146100d45780633d955aa3146100f05780633fc809d41461012157806342169e481461013f57806347cd6e821461015d5780636c33f1a814610179575b600080fd5b6100ee60048036038101906100e99190610fff565b6102c5565b005b61010a60048036038101906101059190611111565b610679565b6040516101189291906111d5565b60405180910390f35b610129610725565b6040516101369190611220565b60405180910390f35b610147610738565b604051610154919061123b565b60405180910390f35b61017760048036038101906101729190611256565b61073e565b005b610181610894565b60405161018e919061123b565b60405180910390f35b6101b160048036038101906101ac9190611323565b61089a565b6040516101be919061123b565b60405180910390f35b6101e160048036038101906101dc9190611350565b6108b8565b6040516101ee919061123b565b60405180910390f35b610211600480360381019061020c9190611111565b6109de565b60405161021e919061123b565b60405180910390f35b610241600480360381019061023c91906113a3565b6109f6565b005b61025d60048036038101906102589190611111565b610b8a565b60405161026a91906113e3565b60405180910390f35b61028d60048036038101906102889190611111565b610cdd565b60405161029e959493929190611405565b60405180910390f35b6102af610da8565b6040516102bc919061146e565b60405180910390f35b60008054906101000a900473ffffffffffffffffffffffffffffffffffffffff1673ffffffffffffffffffffffffffffffffffffffff163373ffffffffffffffffffffffffffffffffffffffff161461031d57600080fd5b86600760008981526020019081526020016000206000018190555085600760008981526020019081526020016000206001019080519060200190610362929190610dcc565b5084600760008981526020019081526020016000206002016000878152602001908152602001600020600001819055508360076000898152602001908152602001600020600201600087815260200190815260200160002060010190805190602001906103d0929190610dcc565b50826007600089815260200190815260200160002060020160008781526020019081526020016000206002018190555081600760008981526020019081526020016000206002016000878152602001908152602001600020600301908051906020019061043e929190610dcc565b506000600760008981526020019081526020016000206002016000878152602001908152602001600020600401819055508060076000898152602001908152602001600020600201600087815260200190815260200160002060050190805190602001906104ad929190610dcc565b508060076000898152602001908152602001600020600401600087815260200190815260200160002090805190602001906104e9929190610dcc565b5060046000848152602001908152602001600020600081548092919061050e906114b8565b91905055506000600190505b6003548110156105845783600760008a815260200190815260200160002060030160008381526020019081526020016000206000015403610571576001600260006101000a81548160ff0219169083151502179055505b808061057c906114b8565b91505061051a565b5060001515600260009054906101000a900460ff1615150361067057600360008154809291906105b3906114b8565b91905055508260076000898152602001908152602001600020600301600085815260200190815260200160002060000181905550816007600089815260200190815260200160002060030160008581526020019081526020016000206001019080519060200190610625929190610dcc565b50600060076000898152602001908152602001600020600301600085815260200190815260200160002060020181905550600060086000878152602001908152602001600020819055505b50505050505050565b60076020528060005260406000206000915090508060000154908060010180546106a29061152f565b80601f01602080910402602001604051908101604052809291908181526020018280546106ce9061152f565b801561071b5780601f106106f05761010080835404028352916020019161071b565b820191906000526020600020905b8154815290600101906020018083116106fe57829003601f168201915b5050505050905082565b600260009054906101000a900460ff1681565b60015481565b60008054906101000a900473ffffffffffffffffffffffffffffffffffffffff1673ffffffffffffffffffffffffffffffffffffffff163373ffffffffffffffffffffffffffffffffffffffff160361079657600080fd5b600160008154809291906107a9906114b8565b91905055508260056000600154815260200190815260200160002060000190805190602001906107da929190610dcc565b5081600560006001548152602001908152602001600020600101819055508060056000600154815260200190815260200160002060020181905550600060056000600154815260200190815260200160002060030160006101000a81548160ff021916908315150217905550600154600660003373ffffffffffffffffffffffffffffffffffffffff1673ffffffffffffffffffffffffffffffffffffffff16815260200190815260200160002060000181905550505050565b60035481565b60066020528060005260406000206000915090508060000154905081565b60008060009054906101000a900473ffffffffffffffffffffffffffffffffffffffff1673ffffffffffffffffffffffffffffffffffffffff163373ffffffffffffffffffffffffffffffffffffffff161461091357600080fd5b600080600190505b60046000858152602001908152602001600020548110156109d557816007600088815260200190815260200160002060020160008381526020019081526020016000206004015411156109c2576007600087815260200190815260200160002060020160008281526020019081526020016000206004015491508092506008600086815260200190815260200160002060008154809291906109bc906114b8565b91905055505b80806109cd906114b8565b91505061091b565b50509392505050565b60086020528060005260406000206000915090505481565b60008054906101000a900473ffffffffffffffffffffffffffffffffffffffff1673ffffffffffffffffffffffffffffffffffffffff163373ffffffffffffffffffffffffffffffffffffffff1603610a4e57600080fd5b6000600660003373ffffffffffffffffffffffffffffffffffffffff1673ffffffffffffffffffffffffffffffffffffffff1681526020019081526020016000206000015490506005600082815260200190815260200160002060030160009054906101000a900460ff1615610af9576040517f08c379a0000000000000000000000000000000000000000000000000000000008152600401610af0906115ac565b60405180910390fd5b60016005600083815260200190815260200160002060030160006101000a81548160ff02191690831515021790555081600560008381526020019081526020016000206004018190555060016007600085815260200190815260200160002060020160008481526020019081526020016000206004016000828254610b7e91906115cc565b92505081905550505050565b606060008054906101000a900473ffffffffffffffffffffffffffffffffffffffff1673ffffffffffffffffffffffffffffffffffffffff163373ffffffffffffffffffffffffffffffffffffffff1614610be457600080fd5b6000805b600354811015610cd6576008600082815260200190815260200160002054821015610cc3576007600085815260200190815260200160002060020160008281526020019081526020016000206005018054610c429061152f565b80601f0160208091040260200160405190810160405280929190818152602001828054610c6e9061152f565b8015610cbb5780601f10610c9057610100808354040283529160200191610cbb565b820191906000526020600020905b815481529060010190602001808311610c9e57829003601f168201915b505050505092505b8080610cce906114b8565b915050610be8565b5050919050565b6005602052806000526040600020600091509050806000018054610d009061152f565b80601f0160208091040260200160405190810160405280929190818152602001828054610d2c9061152f565b8015610d795780601f10610d4e57610100808354040283529160200191610d79565b820191906000526020600020905b815481529060010190602001808311610d5c57829003601f168201915b5050505050908060010154908060020154908060030160009054906101000a900460ff16908060040154905085565b60008054906101000a900473ffffffffffffffffffffffffffffffffffffffff1681565b828054610dd89061152f565b90600052602060002090601f016020900481019282610dfa5760008555610e41565b82601f10610e1357805160ff1916838001178555610e41565b82800160010185558215610e41579182015b82811115610e40578251825591602001919060010190610e25565b5b509050610e4e9190610e52565b5090565b5b80821115610e6b576000816000905550600101610e53565b5090565b6000604051905090565b600080fd5b600080fd5b6000819050919050565b610e9681610e83565b8114610ea157600080fd5b50565b600081359050610eb381610e8d565b92915050565b600080fd5b600080fd5b6000601f19601f8301169050919050565b7f4e487b7100000000000000000000000000000000000000000000000000000000600052604160045260246000fd5b610f0c82610ec3565b810181811067ffffffffffffffff82111715610f2b57610f2a610ed4565b5b80604052505050565b6000610f3e610e6f565b9050610f4a8282610f03565b919050565b600067ffffffffffffffff821115610f6a57610f69610ed4565b5b610f7382610ec3565b9050602081019050919050565b82818337600083830152505050565b6000610fa2610f9d84610f4f565b610f34565b905082815260208101848484011115610fbe57610fbd610ebe565b5b610fc9848285610f80565b509392505050565b600082601f830112610fe657610fe5610eb9565b5b8135610ff6848260208601610f8f565b91505092915050565b600080600080600080600060e0888a03121561101e5761101d610e79565b5b600061102c8a828b01610ea4565b975050602088013567ffffffffffffffff81111561104d5761104c610e7e565b5b6110598a828b01610fd1565b965050604061106a8a828b01610ea4565b955050606088013567ffffffffffffffff81111561108b5761108a610e7e565b5b6110978a828b01610fd1565b94505060806110a88a828b01610ea4565b93505060a088013567ffffffffffffffff8111156110c9576110c8610e7e565b5b6110d58a828b01610fd1565b92505060c088013567ffffffffffffffff8111156110f6576110f5610e7e565b5b6111028a828b01610fd1565b91505092959891949750929550565b60006020828403121561112757611126610e79565b5b600061113584828501610ea4565b91505092915050565b61114781610e83565b82525050565b600081519050919050565b600082825260208201905092915050565b60005b8381101561118757808201518184015260208101905061116c565b83811115611196576000848401525b50505050565b60006111a78261114d565b6111b18185611158565b93506111c1818560208601611169565b6111ca81610ec3565b840191505092915050565b60006040820190506111ea600083018561113e565b81810360208301526111fc818461119c565b90509392505050565b60008115159050919050565b61121a81611205565b82525050565b60006020820190506112356000830184611211565b92915050565b6000602082019050611250600083018461113e565b92915050565b60008060006060848603121561126f5761126e610e79565b5b600084013567ffffffffffffffff81111561128d5761128c610e7e565b5b61129986828701610fd1565b93505060206112aa86828701610ea4565b92505060406112bb86828701610ea4565b9150509250925092565b600073ffffffffffffffffffffffffffffffffffffffff82169050919050565b60006112f0826112c5565b9050919050565b611300816112e5565b811461130b57600080fd5b50565b60008135905061131d816112f7565b92915050565b60006020828403121561133957611338610e79565b5b60006113478482850161130e565b91505092915050565b60008060006060848603121561136957611368610e79565b5b600061137786828701610ea4565b935050602061138886828701610ea4565b925050604061139986828701610ea4565b9150509250925092565b600080604083850312156113ba576113b9610e79565b5b60006113c885828601610ea4565b92505060206113d985828601610ea4565b9150509250929050565b600060208201905081810360008301526113fd818461119c565b905092915050565b600060a082019050818103600083015261141f818861119c565b905061142e602083018761113e565b61143b604083018661113e565b6114486060830185611211565b611455608083018461113e565b9695505050505050565b611468816112e5565b82525050565b6000602082019050611483600083018461145f565b92915050565b7f4e487b7100000000000000000000000000000000000000000000000000000000600052601160045260246000fd5b60006114c382610e83565b91507fffffffffffffffffffffffffffffffffffffffffffffffffffffffffffffffff82036114f5576114f4611489565b5b600182019050919050565b7f4e487b7100000000000000000000000000000000000000000000000000000000600052602260045260246000fd5b6000600282049050600182168061154757607f821691505b60208210810361155a57611559611500565b5b50919050565b7f566f7465722063616e20766f7465206f6e6c79206f6e63652e00000000000000600082015250565b6000611596601983611158565b91506115a182611560565b602082019050919050565b600060208201905081810360008301526115c581611589565b9050919050565b60006115d782610e83565b91506115e283610e83565b9250827fffffffffffffffffffffffffffffffffffffffffffffffffffffffffffffffff0382111561161757611616611489565b5b82820190509291505056fea2646970667358221220141404171e99b42979ccbf82a06c88e9029e17100f98ba38ab7c33a2806b7d1b64736f6c634300080d0033",
  "immutableReferences": {},
  "source": "//SPDX-License-Identifier: MIT\n\npragma solidity >=0.4.22 <0.9.0;\n\ncontract Election{\n\n    struct Voter {\n\n        string voterName;\n        uint voterID;\n        uint phoneNumber;\n        bool voted;\n        uint vote;\n\n    }\n\n    struct VoterID {\n        uint voterIndex;\n    }\n\n    struct Candidate {\n        \n        uint candidateID;\n        string candidateName;\n        uint constituencyID;\n        string contituencyName;\n        uint voteCount;\n        string partyName;\n\n    }\n    \n\n    struct Poll {\n\n        uint pollID;\n        string state;\n        mapping (uint => Candidate) candidates;\n        mapping (uint => Constituency) constituencies;\n        mapping (uint => string) party;\n        \n    }\n\n    struct Constituency {\n\n        uint constituencyID;\n        string contituencyName;\n        uint constituencyWinnerID;\n\n    }\n\n    //The deployer becomes admin so that should be coded in the web3 part.\n    address public admin;\n\n\n    uint public voterCount = 0;\n    bool public constituencyExist = false;\n    uint public constituencyCount = 0;\n\n\n    mapping(uint => uint) candidateCount;\n    mapping(uint => Voter) public voters;\n    mapping(address => VoterID) public voterIDs;\n    mapping(uint => Poll) public poll;\n    mapping(uint => uint) public winnerConstituencyCount;\n\n\n    //The constructor gets executed when the contract is deployed and the address will assigned as admin.\n    constructor() {\n        admin = msg.sender;\n    }\n\n    //The modifier or a constraint tracker which defines the function that can be executed by the admin only.\n    modifier onlyAdmin {\n        require(msg.sender == admin);\n        _;\n    }\n\n    //The modifier which makes sure that only voter can access(Prateek's part)\n    modifier onlyVoter {\n        require(msg.sender != admin);\n        _;\n    }\n\n\n    //Sheetal's web3\n    function addPoll(uint _pollID, string memory _state, uint _candidateID, string memory _candidateName, uint _constituencyID, string memory _constituencyName, string memory _partyName) public onlyAdmin {\n        poll[_pollID].pollID = _pollID;\n        poll[_pollID].state = _state;\n\n        poll[_pollID].candidates[_candidateID].candidateID = _candidateID;\n        poll[_pollID].candidates[_candidateID].candidateName = _candidateName;\n        poll[_pollID].candidates[_candidateID].constituencyID = _constituencyID;\n        poll[_pollID].candidates[_candidateID].contituencyName = _constituencyName;\n        poll[_pollID].candidates[_candidateID].voteCount = 0;\n        poll[_pollID].candidates[_candidateID].partyName = _partyName;\n        poll[_pollID].party[_candidateID] = _partyName;\n        candidateCount[_constituencyID]++;\n        \n        for(uint _constituencyIndex = 1; _constituencyIndex < constituencyCount; _constituencyIndex++){\n\n          if(poll[_pollID].constituencies[_constituencyIndex].constituencyID == _constituencyID){\n              constituencyExist=true;\n          }\n        }\n        \n        if(constituencyExist==false)\n        {\n\n            constituencyCount++;\n            poll[_pollID].constituencies[_constituencyID].constituencyID = _constituencyID;\n            poll[_pollID].constituencies[_constituencyID].contituencyName = _constituencyName;\n            poll[_pollID].constituencies[_constituencyID].constituencyWinnerID = 0;\n            winnerConstituencyCount[_candidateID] = 0;\n            \n        }\n\n    }\n    \n\n    //Prateek's web3\n    function voterLogin(string memory _voterName, uint _voterID, uint _phoneNumber) public onlyVoter {\n         \n        voterCount++;\n        voters[voterCount].voterName = _voterName;\n        voters[voterCount].voterID = _voterID;\n        voters[voterCount].phoneNumber = _phoneNumber;\n        voters[voterCount].voted = false;\n        voterIDs[msg.sender].voterIndex = voterCount;\n\n    }\n    \n\n    //Prateek's web3\n    function vote(uint _pollID, uint _candidateID) public onlyVoter {\n\n        uint _voterIndex = voterIDs[msg.sender].voterIndex;     \n        require(!voters[_voterIndex].voted, \"Voter can vote only once.\");\n        voters[_voterIndex].voted = true;\n        voters[_voterIndex].vote = _candidateID;\n        poll[_pollID].candidates[_candidateID].voteCount += 1;\n    }\n\n\n    //Harsha's web3\n    function constituencyWinner(uint _pollID, uint _candidateID, uint _constituencyID) public onlyAdmin returns (uint _winnerID){\n        uint maxVoteCount = 0;\n        for(uint _candidateIndex = 1; _candidateIndex < candidateCount[_constituencyID]; _candidateIndex++){\n            if(poll[_pollID].candidates[_candidateIndex].voteCount > maxVoteCount){\n\n                maxVoteCount = poll[_pollID].candidates[_candidateIndex].voteCount;\n                _winnerID = _candidateIndex;\n                winnerConstituencyCount[_candidateID]++;\n            }\n        }\n    }\n\n\n    //Harsha's web3\n    function electionWinner(uint _pollID) public view onlyAdmin returns (string memory _winningParty){\n        uint _winnerConstituencyCount = 0;\n        for(uint _constituencyIndex = 0; _constituencyIndex < constituencyCount; _constituencyIndex++){\n            if(_winnerConstituencyCount < winnerConstituencyCount[_constituencyIndex]){\n                _winningParty = poll[_pollID].candidates[_constituencyIndex].partyName;\n            }\n        }\n    }\n  \n}",
  "sourcePath": "/home/prateek/Desktop/Projects/Final_Year_Project/eVoting/blockchain/contracts/Election.sol",
  "compiler": {
    "name": "solc",
    "version": "0.8.13+commit.abaa5c0e.Emscripten.clang"
  },
  "schemaVersion": "3.4.7",
  "updatedAt": "2022-05-14T07:03:58.207Z",
  "networkType": "ethereum",
  "devdoc": {
    "kind": "dev",
    "methods": {},
    "version": 1
  },
  "userdoc": {
    "kind": "user",
    "methods": {},
    "version": 1
  }
}