{
  "contractName": "Election",
  "abi": [
    {
      "inputs": [],
      "stateMutability": "nonpayable",
      "type": "constructor"
    },
    {
      "inputs": [],
      "name": "admin",
      "outputs": [
        {
          "internalType": "address",
          "name": "",
          "type": "address"
        }
      ],
      "stateMutability": "view",
      "type": "function",
      "constant": true
    },
    {
      "inputs": [],
      "name": "constituencyCount",
      "outputs": [
        {
          "internalType": "uint256",
          "name": "",
          "type": "uint256"
        }
      ],
      "stateMutability": "view",
      "type": "function",
      "constant": true
    },
    {
      "inputs": [],
      "name": "constituencyExist",
      "outputs": [
        {
          "internalType": "bool",
          "name": "",
          "type": "bool"
        }
      ],
      "stateMutability": "view",
      "type": "function",
      "constant": true
    },
    {
      "inputs": [
        {
          "internalType": "uint256",
          "name": "",
          "type": "uint256"
        }
      ],
      "name": "poll",
      "outputs": [
        {
          "internalType": "uint256",
          "name": "pollID",
          "type": "uint256"
        },
        {
          "internalType": "string",
          "name": "state",
          "type": "string"
        }
      ],
      "stateMutability": "view",
      "type": "function",
      "constant": true
    },
    {
      "inputs": [],
      "name": "voterCount",
      "outputs": [
        {
          "internalType": "uint256",
          "name": "",
          "type": "uint256"
        }
      ],
      "stateMutability": "view",
      "type": "function",
      "constant": true
    },
    {
      "inputs": [
        {
          "internalType": "address",
          "name": "",
          "type": "address"
        }
      ],
      "name": "voterIDs",
      "outputs": [
        {
          "internalType": "uint256",
          "name": "voterIndex",
          "type": "uint256"
        }
      ],
      "stateMutability": "view",
      "type": "function",
      "constant": true
    },
    {
      "inputs": [
        {
          "internalType": "uint256",
          "name": "",
          "type": "uint256"
        }
      ],
      "name": "voters",
      "outputs": [
        {
          "internalType": "string",
          "name": "voterName",
          "type": "string"
        },
        {
          "internalType": "uint256",
          "name": "voterID",
          "type": "uint256"
        },
        {
          "internalType": "uint256",
          "name": "phoneNumber",
          "type": "uint256"
        },
        {
          "internalType": "address",
          "name": "voterAddress",
          "type": "address"
        },
        {
          "internalType": "bool",
          "name": "voted",
          "type": "bool"
        },
        {
          "internalType": "uint256",
          "name": "vote",
          "type": "uint256"
        }
      ],
      "stateMutability": "view",
      "type": "function",
      "constant": true
    },
    {
      "inputs": [
        {
          "internalType": "uint256",
          "name": "",
          "type": "uint256"
        }
      ],
      "name": "winnerConstituencyCount",
      "outputs": [
        {
          "internalType": "uint256",
          "name": "",
          "type": "uint256"
        }
      ],
      "stateMutability": "view",
      "type": "function",
      "constant": true
    },
    {
      "inputs": [
        {
          "internalType": "uint256",
          "name": "_pollID",
          "type": "uint256"
        },
        {
          "internalType": "string",
          "name": "_state",
          "type": "string"
        },
        {
          "internalType": "uint256",
          "name": "_candidateID",
          "type": "uint256"
        },
        {
          "internalType": "string",
          "name": "_candidateName",
          "type": "string"
        },
        {
          "internalType": "uint256",
          "name": "_constituencyID",
          "type": "uint256"
        },
        {
          "internalType": "string",
          "name": "_constituencyName",
          "type": "string"
        },
        {
          "internalType": "string",
          "name": "_partyName",
          "type": "string"
        }
      ],
      "name": "addPoll",
      "outputs": [],
      "stateMutability": "nonpayable",
      "type": "function"
    },
    {
      "inputs": [
        {
          "internalType": "string",
          "name": "_voterName",
          "type": "string"
        },
        {
          "internalType": "uint256",
          "name": "_voterID",
          "type": "uint256"
        },
        {
          "internalType": "uint256",
          "name": "_phoneNumber",
          "type": "uint256"
        }
      ],
      "name": "voterLogin",
      "outputs": [],
      "stateMutability": "nonpayable",
      "type": "function"
    },
    {
      "inputs": [
        {
          "internalType": "uint256",
          "name": "_pollID",
          "type": "uint256"
        },
        {
          "internalType": "uint256",
          "name": "_candidateID",
          "type": "uint256"
        }
      ],
      "name": "vote",
      "outputs": [],
      "stateMutability": "nonpayable",
      "type": "function"
    },
    {
      "inputs": [
        {
          "internalType": "uint256",
          "name": "_pollID",
          "type": "uint256"
        },
        {
          "internalType": "uint256",
          "name": "_candidateID",
          "type": "uint256"
        },
        {
          "internalType": "uint256",
          "name": "_constituencyID",
          "type": "uint256"
        }
      ],
      "name": "constituencyWinner",
      "outputs": [
        {
          "internalType": "uint256",
          "name": "_winnerID",
          "type": "uint256"
        }
      ],
      "stateMutability": "nonpayable",
      "type": "function"
    },
    {
      "inputs": [
        {
          "internalType": "uint256",
          "name": "_pollID",
          "type": "uint256"
        }
      ],
      "name": "electionWinner",
      "outputs": [
        {
          "internalType": "string",
          "name": "_winningParty",
          "type": "string"
        }
      ],
      "stateMutability": "view",
      "type": "function",
      "constant": true
    }
  ],
  "bytecode": "0x608060405260006001556000600260006101000a81548160ff021916908315150217905550600060035534801561003557600080fd5b50336000806101000a81548173ffffffffffffffffffffffffffffffffffffffff021916908373ffffffffffffffffffffffffffffffffffffffff1602179055506116e4806100856000396000f3fe608060405234801561001057600080fd5b50600436106100cf5760003560e01c806380ebd2ef1161008c578063b384abef11610066578063b384abef14610227578063d41fa75d14610243578063da58c7d914610273578063f851a440146102a8576100cf565b806380ebd2ef146101975780638726dcf3146101c757806396af3896146101f7576100cf565b80632f8f248c146100d45780633d955aa3146100f05780633fc809d41461012157806342169e481461013f57806347cd6e821461015d5780636c33f1a814610179575b600080fd5b6100ee60048036038101906100e9919061107d565b6102c6565b005b61010a6004803603810190610105919061118f565b61067a565b604051610118929190611253565b60405180910390f35b610129610726565b604051610136919061129e565b60405180910390f35b610147610739565b60405161015491906112b9565b60405180910390f35b610177600480360381019061017291906112d4565b61073f565b005b6101816108ec565b60405161018e91906112b9565b60405180910390f35b6101b160048036038101906101ac91906113a1565b6108f2565b6040516101be91906112b9565b60405180910390f35b6101e160048036038101906101dc91906113ce565b610910565b6040516101ee91906112b9565b60405180910390f35b610211600480360381019061020c919061118f565b610a36565b60405161021e91906112b9565b60405180910390f35b610241600480360381019061023c9190611421565b610a4e565b005b61025d6004803603810190610258919061118f565b610be2565b60405161026a9190611461565b60405180910390f35b61028d6004803603810190610288919061118f565b610d35565b60405161029f96959493929190611492565b60405180910390f35b6102b0610e26565b6040516102bd91906114fa565b60405180910390f35b60008054906101000a900473ffffffffffffffffffffffffffffffffffffffff1673ffffffffffffffffffffffffffffffffffffffff163373ffffffffffffffffffffffffffffffffffffffff161461031e57600080fd5b86600760008981526020019081526020016000206000018190555085600760008981526020019081526020016000206001019080519060200190610363929190610e4a565b5084600760008981526020019081526020016000206002016000878152602001908152602001600020600001819055508360076000898152602001908152602001600020600201600087815260200190815260200160002060010190805190602001906103d1929190610e4a565b50826007600089815260200190815260200160002060020160008781526020019081526020016000206002018190555081600760008981526020019081526020016000206002016000878152602001908152602001600020600301908051906020019061043f929190610e4a565b506000600760008981526020019081526020016000206002016000878152602001908152602001600020600401819055508060076000898152602001908152602001600020600201600087815260200190815260200160002060050190805190602001906104ae929190610e4a565b508060076000898152602001908152602001600020600401600087815260200190815260200160002090805190602001906104ea929190610e4a565b5060046000848152602001908152602001600020600081548092919061050f90611544565b91905055506000600190505b6003548110156105855783600760008a815260200190815260200160002060030160008381526020019081526020016000206000015403610572576001600260006101000a81548160ff0219169083151502179055505b808061057d90611544565b91505061051b565b5060001515600260009054906101000a900460ff1615150361067157600360008154809291906105b490611544565b91905055508260076000898152602001908152602001600020600301600085815260200190815260200160002060000181905550816007600089815260200190815260200160002060030160008581526020019081526020016000206001019080519060200190610626929190610e4a565b50600060076000898152602001908152602001600020600301600085815260200190815260200160002060020181905550600060086000878152602001908152602001600020819055505b50505050505050565b60076020528060005260406000206000915090508060000154908060010180546106a3906115bb565b80601f01602080910402602001604051908101604052809291908181526020018280546106cf906115bb565b801561071c5780601f106106f15761010080835404028352916020019161071c565b820191906000526020600020905b8154815290600101906020018083116106ff57829003601f168201915b5050505050905082565b600260009054906101000a900460ff1681565b60015481565b60008054906101000a900473ffffffffffffffffffffffffffffffffffffffff1673ffffffffffffffffffffffffffffffffffffffff163373ffffffffffffffffffffffffffffffffffffffff160361079757600080fd5b600160008154809291906107aa90611544565b91905055508260056000600154815260200190815260200160002060000190805190602001906107db929190610e4a565b50816005600060015481526020019081526020016000206001018190555080600560006001548152602001908152602001600020600201819055503360056000600154815260200190815260200160002060030160006101000a81548173ffffffffffffffffffffffffffffffffffffffff021916908373ffffffffffffffffffffffffffffffffffffffff160217905550600060056000600154815260200190815260200160002060030160146101000a81548160ff021916908315150217905550600154600660003373ffffffffffffffffffffffffffffffffffffffff1673ffffffffffffffffffffffffffffffffffffffff16815260200190815260200160002060000181905550505050565b60035481565b60066020528060005260406000206000915090508060000154905081565b60008060009054906101000a900473ffffffffffffffffffffffffffffffffffffffff1673ffffffffffffffffffffffffffffffffffffffff163373ffffffffffffffffffffffffffffffffffffffff161461096b57600080fd5b600080600190505b6004600085815260200190815260200160002054811015610a2d5781600760008881526020019081526020016000206002016000838152602001908152602001600020600401541115610a1a57600760008781526020019081526020016000206002016000828152602001908152602001600020600401549150809250600860008681526020019081526020016000206000815480929190610a1490611544565b91905055505b8080610a2590611544565b915050610973565b50509392505050565b60086020528060005260406000206000915090505481565b60008054906101000a900473ffffffffffffffffffffffffffffffffffffffff1673ffffffffffffffffffffffffffffffffffffffff163373ffffffffffffffffffffffffffffffffffffffff1603610aa657600080fd5b6000600660003373ffffffffffffffffffffffffffffffffffffffff1673ffffffffffffffffffffffffffffffffffffffff1681526020019081526020016000206000015490506005600082815260200190815260200160002060030160149054906101000a900460ff1615610b51576040517f08c379a0000000000000000000000000000000000000000000000000000000008152600401610b4890611638565b60405180910390fd5b60016005600083815260200190815260200160002060030160146101000a81548160ff02191690831515021790555081600560008381526020019081526020016000206004018190555060016007600085815260200190815260200160002060020160008481526020019081526020016000206004016000828254610bd69190611658565b92505081905550505050565b606060008054906101000a900473ffffffffffffffffffffffffffffffffffffffff1673ffffffffffffffffffffffffffffffffffffffff163373ffffffffffffffffffffffffffffffffffffffff1614610c3c57600080fd5b6000805b600354811015610d2e576008600082815260200190815260200160002054821015610d1b576007600085815260200190815260200160002060020160008281526020019081526020016000206005018054610c9a906115bb565b80601f0160208091040260200160405190810160405280929190818152602001828054610cc6906115bb565b8015610d135780601f10610ce857610100808354040283529160200191610d13565b820191906000526020600020905b815481529060010190602001808311610cf657829003601f168201915b505050505092505b8080610d2690611544565b915050610c40565b5050919050565b6005602052806000526040600020600091509050806000018054610d58906115bb565b80601f0160208091040260200160405190810160405280929190818152602001828054610d84906115bb565b8015610dd15780601f10610da657610100808354040283529160200191610dd1565b820191906000526020600020905b815481529060010190602001808311610db457829003601f168201915b5050505050908060010154908060020154908060030160009054906101000a900473ffffffffffffffffffffffffffffffffffffffff16908060030160149054906101000a900460ff16908060040154905086565b60008054906101000a900473ffffffffffffffffffffffffffffffffffffffff1681565b828054610e56906115bb565b90600052602060002090601f016020900481019282610e785760008555610ebf565b82601f10610e9157805160ff1916838001178555610ebf565b82800160010185558215610ebf579182015b82811115610ebe578251825591602001919060010190610ea3565b5b509050610ecc9190610ed0565b5090565b5b80821115610ee9576000816000905550600101610ed1565b5090565b6000604051905090565b600080fd5b600080fd5b6000819050919050565b610f1481610f01565b8114610f1f57600080fd5b50565b600081359050610f3181610f0b565b92915050565b600080fd5b600080fd5b6000601f19601f8301169050919050565b7f4e487b7100000000000000000000000000000000000000000000000000000000600052604160045260246000fd5b610f8a82610f41565b810181811067ffffffffffffffff82111715610fa957610fa8610f52565b5b80604052505050565b6000610fbc610eed565b9050610fc88282610f81565b919050565b600067ffffffffffffffff821115610fe857610fe7610f52565b5b610ff182610f41565b9050602081019050919050565b82818337600083830152505050565b600061102061101b84610fcd565b610fb2565b90508281526020810184848401111561103c5761103b610f3c565b5b611047848285610ffe565b509392505050565b600082601f83011261106457611063610f37565b5b813561107484826020860161100d565b91505092915050565b600080600080600080600060e0888a03121561109c5761109b610ef7565b5b60006110aa8a828b01610f22565b975050602088013567ffffffffffffffff8111156110cb576110ca610efc565b5b6110d78a828b0161104f565b96505060406110e88a828b01610f22565b955050606088013567ffffffffffffffff81111561110957611108610efc565b5b6111158a828b0161104f565b94505060806111268a828b01610f22565b93505060a088013567ffffffffffffffff81111561114757611146610efc565b5b6111538a828b0161104f565b92505060c088013567ffffffffffffffff81111561117457611173610efc565b5b6111808a828b0161104f565b91505092959891949750929550565b6000602082840312156111a5576111a4610ef7565b5b60006111b384828501610f22565b91505092915050565b6111c581610f01565b82525050565b600081519050919050565b600082825260208201905092915050565b60005b838110156112055780820151818401526020810190506111ea565b83811115611214576000848401525b50505050565b6000611225826111cb565b61122f81856111d6565b935061123f8185602086016111e7565b61124881610f41565b840191505092915050565b600060408201905061126860008301856111bc565b818103602083015261127a818461121a565b90509392505050565b60008115159050919050565b61129881611283565b82525050565b60006020820190506112b3600083018461128f565b92915050565b60006020820190506112ce60008301846111bc565b92915050565b6000806000606084860312156112ed576112ec610ef7565b5b600084013567ffffffffffffffff81111561130b5761130a610efc565b5b6113178682870161104f565b935050602061132886828701610f22565b925050604061133986828701610f22565b9150509250925092565b600073ffffffffffffffffffffffffffffffffffffffff82169050919050565b600061136e82611343565b9050919050565b61137e81611363565b811461138957600080fd5b50565b60008135905061139b81611375565b92915050565b6000602082840312156113b7576113b6610ef7565b5b60006113c58482850161138c565b91505092915050565b6000806000606084860312156113e7576113e6610ef7565b5b60006113f586828701610f22565b935050602061140686828701610f22565b925050604061141786828701610f22565b9150509250925092565b6000806040838503121561143857611437610ef7565b5b600061144685828601610f22565b925050602061145785828601610f22565b9150509250929050565b6000602082019050818103600083015261147b818461121a565b905092915050565b61148c81611363565b82525050565b600060c08201905081810360008301526114ac818961121a565b90506114bb60208301886111bc565b6114c860408301876111bc565b6114d56060830186611483565b6114e2608083018561128f565b6114ef60a08301846111bc565b979650505050505050565b600060208201905061150f6000830184611483565b92915050565b7f4e487b7100000000000000000000000000000000000000000000000000000000600052601160045260246000fd5b600061154f82610f01565b91507fffffffffffffffffffffffffffffffffffffffffffffffffffffffffffffffff820361158157611580611515565b5b600182019050919050565b7f4e487b7100000000000000000000000000000000000000000000000000000000600052602260045260246000fd5b600060028204905060018216806115d357607f821691505b6020821081036115e6576115e561158c565b5b50919050565b7f566f7465722063616e20766f7465206f6e6c79206f6e63652e00000000000000600082015250565b60006116226019836111d6565b915061162d826115ec565b602082019050919050565b6000602082019050818103600083015261165181611615565b9050919050565b600061166382610f01565b915061166e83610f01565b9250827fffffffffffffffffffffffffffffffffffffffffffffffffffffffffffffffff038211156116a3576116a2611515565b5b82820190509291505056fea2646970667358221220e1aca4d63c92d49f284bd9f3e14194df0d26c09753d2faf371affec90588edc364736f6c634300080d0033",
  "immutableReferences": {},
  "source": "//SPDX-License-Identifier: MIT\n\npragma solidity >=0.4.22 <0.9.0;\n\ncontract Election{\n\n    struct Voter {\n\n        string voterName;\n        uint voterID;\n        uint phoneNumber;\n        address voterAddress;\n        bool voted;\n        uint vote;\n\n    }\n\n    struct VoterID {\n        uint voterIndex;\n    }\n\n    struct Candidate {\n        \n        uint candidateID;\n        string candidateName;\n        uint constituencyID;\n        string contituencyName;\n        uint voteCount;\n        string partyName;\n\n    }\n    \n\n    struct Poll {\n\n        uint pollID;\n        string state;\n        mapping (uint => Candidate) candidates;\n        mapping (uint => Constituency) constituencies;\n        mapping (uint => string) party;\n        \n    }\n\n    struct Constituency {\n\n        uint constituencyID;\n        string contituencyName;\n        uint constituencyWinnerID;\n\n    }\n\n    //The deployer becomes admin so that should be coded in the web3 part.\n    address public admin;\n\n\n    uint public voterCount = 0;\n    bool public constituencyExist = false;\n    uint public constituencyCount = 0;\n\n\n    mapping(uint => uint) candidateCount;\n    mapping(uint => Voter) public voters;\n    mapping(address => VoterID) public voterIDs;\n    mapping(uint => Poll) public poll;\n    mapping(uint => uint) public winnerConstituencyCount;\n\n\n    //The constructor gets executed when the contract is deployed and the address will assigned as admin.\n    constructor() {\n        admin = msg.sender;\n    }\n\n    //The modifier or a constraint tracker which defines the function that can be executed by the admin only.\n    modifier onlyAdmin {\n        require(msg.sender == admin);\n        _;\n    }\n\n    //The modifier which makes sure that only voter can access(Prateek's part)\n    modifier onlyVoter {\n        require(msg.sender != admin);\n        _;\n    }\n\n\n    //Sheetal's web3\n    function addPoll(uint _pollID, string memory _state, uint _candidateID, string memory _candidateName, uint _constituencyID, string memory _constituencyName, string memory _partyName) public onlyAdmin {\n        poll[_pollID].pollID = _pollID;\n        poll[_pollID].state = _state;\n\n        poll[_pollID].candidates[_candidateID].candidateID = _candidateID;\n        poll[_pollID].candidates[_candidateID].candidateName = _candidateName;\n        poll[_pollID].candidates[_candidateID].constituencyID = _constituencyID;\n        poll[_pollID].candidates[_candidateID].contituencyName = _constituencyName;\n        poll[_pollID].candidates[_candidateID].voteCount = 0;\n        poll[_pollID].candidates[_candidateID].partyName = _partyName;\n        poll[_pollID].party[_candidateID] = _partyName;\n        candidateCount[_constituencyID]++;\n        \n        for(uint _constituencyIndex = 1; _constituencyIndex < constituencyCount; _constituencyIndex++){\n\n          if(poll[_pollID].constituencies[_constituencyIndex].constituencyID == _constituencyID){\n              constituencyExist=true;\n          }\n        }\n        \n        if(constituencyExist==false)\n        {\n\n            constituencyCount++;\n            poll[_pollID].constituencies[_constituencyID].constituencyID = _constituencyID;\n            poll[_pollID].constituencies[_constituencyID].contituencyName = _constituencyName;\n            poll[_pollID].constituencies[_constituencyID].constituencyWinnerID = 0;\n            winnerConstituencyCount[_candidateID] = 0;\n            \n        }\n\n    }\n    \n\n    //Prateek's web3\n    function voterLogin(string memory _voterName, uint _voterID, uint _phoneNumber) public onlyVoter {\n         \n        voterCount++;\n        voters[voterCount].voterName = _voterName;\n        voters[voterCount].voterID = _voterID;\n        voters[voterCount].phoneNumber = _phoneNumber;\n        voters[voterCount].voterAddress = msg.sender;\n        voters[voterCount].voted = false;\n        voterIDs[msg.sender].voterIndex = voterCount;\n\n    }\n    \n\n    //Prateek's web3\n    function vote(uint _pollID, uint _candidateID) public onlyVoter {\n\n        uint _voterIndex = voterIDs[msg.sender].voterIndex;     \n        require(!voters[_voterIndex].voted, \"Voter can vote only once.\");\n        voters[_voterIndex].voted = true;\n        voters[_voterIndex].vote = _candidateID;\n        poll[_pollID].candidates[_candidateID].voteCount += 1;\n    }\n\n\n    //Harsha's web3\n    function constituencyWinner(uint _pollID, uint _candidateID, uint _constituencyID) public onlyAdmin returns (uint _winnerID){\n        uint maxVoteCount = 0;\n        for(uint _candidateIndex = 1; _candidateIndex < candidateCount[_constituencyID]; _candidateIndex++){\n            if(poll[_pollID].candidates[_candidateIndex].voteCount > maxVoteCount){\n\n                maxVoteCount = poll[_pollID].candidates[_candidateIndex].voteCount;\n                _winnerID = _candidateIndex;\n                winnerConstituencyCount[_candidateID]++;\n            }\n        }\n    }\n\n\n    //Harsha's web3\n    function electionWinner(uint _pollID) public view onlyAdmin returns (string memory _winningParty){\n        uint _winnerConstituencyCount = 0;\n        for(uint _constituencyIndex = 0; _constituencyIndex < constituencyCount; _constituencyIndex++){\n            if(_winnerConstituencyCount < winnerConstituencyCount[_constituencyIndex]){\n                _winningParty = poll[_pollID].candidates[_constituencyIndex].partyName;\n            }\n        }\n    }\n  \n}",
  "sourcePath": "/home/prateek/Desktop/Projects/Final_Year_Project/eVoting/blockchain/contracts/Election.sol",
  "compiler": {
    "name": "solc",
    "version": "0.8.13+commit.abaa5c0e.Emscripten.clang"
  },
  "schemaVersion": "3.4.7",
  "updatedAt": "2022-05-20T11:09:46.592Z",
  "networkType": "ethereum",
  "devdoc": {
    "kind": "dev",
    "methods": {},
    "version": 1
  },
  "userdoc": {
    "kind": "user",
    "methods": {},
    "version": 1
  }
}